{
  "abi": [
    {
      "inputs": [],
      "stateMutability": "nonpayable",
      "type": "constructor"
    },
    {
      "inputs": [],
      "name": "CannotRenounceOwnership",
      "type": "error"
    },
    {
      "inputs": [],
      "name": "ExpiredRoot",
      "type": "error"
    },
    {
      "inputs": [],
      "name": "ImplementationNotInitialized",
      "type": "error"
    },
    {
      "inputs": [
        {
          "internalType": "uint256",
          "name": "index",
          "type": "uint256"
        }
      ],
      "name": "InvalidCommitment",
      "type": "error"
    },
    {
      "inputs": [],
      "name": "InvalidStateBridgeAddress",
      "type": "error"
    },
    {
      "inputs": [],
      "name": "MismatchedInputLengths",
      "type": "error"
    },
    {
      "inputs": [],
      "name": "NonExistentRoot",
      "type": "error"
    },
    {
      "inputs": [
        {
          "internalType": "uint256",
          "name": "providedRoot",
          "type": "uint256"
        },
        {
          "internalType": "uint256",
          "name": "latestRoot",
          "type": "uint256"
        }
      ],
      "name": "NotLatestRoot",
      "type": "error"
    },
    {
      "inputs": [],
      "name": "ProofValidationFailure",
      "type": "error"
    },
    {
      "inputs": [],
      "name": "StateBridgeAlreadyDisabled",
      "type": "error"
    },
    {
      "inputs": [],
      "name": "StateBridgeAlreadyEnabled",
      "type": "error"
    },
    {
      "inputs": [
        {
          "internalType": "address",
          "name": "user",
          "type": "address"
        }
      ],
      "name": "Unauthorized",
      "type": "error"
    },
    {
      "inputs": [
        {
          "internalType": "enum WorldIDIdentityManagerImplV1.UnreducedElementType",
          "name": "elementType",
          "type": "uint8"
        },
        {
          "internalType": "uint256",
          "name": "element",
          "type": "uint256"
        }
      ],
      "name": "UnreducedElement",
      "type": "error"
    },
    {
      "inputs": [
        {
          "internalType": "uint8",
          "name": "depth",
          "type": "uint8"
        }
      ],
      "name": "UnsupportedTreeDepth",
      "type": "error"
    },
    {
      "anonymous": false,
      "inputs": [
        {
          "indexed": false,
          "internalType": "address",
          "name": "previousAdmin",
          "type": "address"
        },
        {
          "indexed": false,
          "internalType": "address",
          "name": "newAdmin",
          "type": "address"
        }
      ],
      "name": "AdminChanged",
      "type": "event"
    },
    {
      "anonymous": false,
      "inputs": [
        {
          "indexed": true,
          "internalType": "address",
          "name": "beacon",
          "type": "address"
        }
      ],
      "name": "BeaconUpgraded",
      "type": "event"
    },
    {
      "anonymous": false,
      "inputs": [
        {
          "indexed": true,
          "internalType": "enum WorldIDIdentityManagerImplV1.Dependency",
          "name": "kind",
          "type": "uint8"
        },
        {
          "indexed": true,
          "internalType": "address",
          "name": "oldAddress",
          "type": "address"
        },
        {
          "indexed": true,
          "internalType": "address",
          "name": "newAddress",
          "type": "address"
        }
      ],
      "name": "DependencyUpdated",
      "type": "event"
    },
    {
      "anonymous": false,
      "inputs": [
        {
          "indexed": true,
          "internalType": "address",
          "name": "oldOperator",
          "type": "address"
        },
        {
          "indexed": true,
          "internalType": "address",
          "name": "newOperator",
          "type": "address"
        }
      ],
      "name": "IdentityOperatorChanged",
      "type": "event"
    },
    {
      "anonymous": false,
      "inputs": [
        {
          "indexed": false,
          "internalType": "uint8",
          "name": "version",
          "type": "uint8"
        }
      ],
      "name": "Initialized",
      "type": "event"
    },
    {
      "anonymous": false,
      "inputs": [
        {
          "indexed": true,
          "internalType": "address",
          "name": "previousOwner",
          "type": "address"
        },
        {
          "indexed": true,
          "internalType": "address",
          "name": "newOwner",
          "type": "address"
        }
      ],
      "name": "OwnershipTransferStarted",
      "type": "event"
    },
    {
      "anonymous": false,
      "inputs": [
        {
          "indexed": true,
          "internalType": "address",
          "name": "previousOwner",
          "type": "address"
        },
        {
          "indexed": true,
          "internalType": "address",
          "name": "newOwner",
          "type": "address"
        }
      ],
      "name": "OwnershipTransferred",
      "type": "event"
    },
    {
      "anonymous": false,
      "inputs": [
        {
          "indexed": true,
          "internalType": "uint256",
          "name": "oldExpiryTime",
          "type": "uint256"
        },
        {
          "indexed": true,
          "internalType": "uint256",
          "name": "newExpiryTime",
          "type": "uint256"
        }
      ],
      "name": "RootHistoryExpirySet",
      "type": "event"
    },
    {
      "anonymous": false,
      "inputs": [
        {
          "indexed": true,
          "internalType": "bool",
          "name": "isEnabled",
          "type": "bool"
        }
      ],
      "name": "StateBridgeStateChange",
      "type": "event"
    },
    {
      "anonymous": false,
      "inputs": [
        {
          "indexed": true,
          "internalType": "uint256",
          "name": "preRoot",
          "type": "uint256"
        },
        {
          "indexed": true,
          "internalType": "enum WorldIDIdentityManagerImplV1.TreeChange",
          "name": "kind",
          "type": "uint8"
        },
        {
          "indexed": true,
          "internalType": "uint256",
          "name": "postRoot",
          "type": "uint256"
        }
      ],
      "name": "TreeChanged",
      "type": "event"
    },
    {
      "anonymous": false,
      "inputs": [
        {
          "indexed": true,
          "internalType": "address",
          "name": "implementation",
          "type": "address"
        }
      ],
      "name": "Upgraded",
      "type": "event"
    },
    {
      "anonymous": false,
      "inputs": [
        {
          "indexed": false,
          "internalType": "uint8",
          "name": "_treeDepth",
          "type": "uint8"
        },
        {
          "indexed": false,
          "internalType": "uint256",
          "name": "initialRoot",
          "type": "uint256"
        },
        {
          "indexed": false,
          "internalType": "bool",
          "name": "_enableStateBridge",
          "type": "bool"
        },
        {
          "indexed": false,
          "internalType": "contract IBridge",
          "name": "__stateBridge",
          "type": "address"
        }
      ],
      "name": "WorldIDIdentityManagerImplInitialized",
      "type": "event"
    },
    {
      "inputs": [],
      "name": "NO_SUCH_ROOT",
      "outputs": [
        {
          "components": [
            {
              "internalType": "uint256",
              "name": "root",
              "type": "uint256"
            },
            {
              "internalType": "uint128",
              "name": "supersededTimestamp",
              "type": "uint128"
            },
            {
              "internalType": "bool",
              "name": "isValid",
              "type": "bool"
            }
          ],
          "internalType": "struct WorldIDIdentityManagerImplV1.RootInfo",
          "name": "rootInfo",
          "type": "tuple"
        }
      ],
      "stateMutability": "pure",
      "type": "function"
    },
    {
      "inputs": [],
      "name": "acceptOwnership",
      "outputs": [],
      "stateMutability": "nonpayable",
      "type": "function"
    },
    {
      "inputs": [
        {
          "internalType": "uint32",
          "name": "startIndex",
          "type": "uint32"
        },
        {
          "internalType": "uint256",
          "name": "preRoot",
          "type": "uint256"
        },
        {
          "internalType": "uint256",
          "name": "postRoot",
          "type": "uint256"
        },
        {
          "internalType": "uint256[]",
          "name": "identityCommitments",
          "type": "uint256[]"
        }
      ],
      "name": "calculateIdentityRegistrationInputHash",
      "outputs": [
        {
          "internalType": "bytes32",
          "name": "hash",
          "type": "bytes32"
        }
      ],
      "stateMutability": "view",
      "type": "function"
    },
    {
      "inputs": [
        {
          "internalType": "uint256",
          "name": "preRoot",
          "type": "uint256"
        },
        {
          "internalType": "uint256",
          "name": "postRoot",
          "type": "uint256"
        },
        {
          "internalType": "uint32[]",
          "name": "leafIndices",
          "type": "uint32[]"
        },
        {
          "internalType": "uint256[]",
          "name": "oldIdentities",
          "type": "uint256[]"
        },
        {
          "internalType": "uint256[]",
          "name": "newIdentities",
          "type": "uint256[]"
        }
      ],
      "name": "calculateIdentityUpdateInputHash",
      "outputs": [
        {
          "internalType": "bytes32",
          "name": "hash",
          "type": "bytes32"
        }
      ],
      "stateMutability": "view",
      "type": "function"
    },
    {
      "inputs": [],
      "name": "disableStateBridge",
      "outputs": [],
      "stateMutability": "nonpayable",
      "type": "function"
    },
    {
      "inputs": [],
      "name": "enableStateBridge",
      "outputs": [],
      "stateMutability": "nonpayable",
      "type": "function"
    },
    {
      "inputs": [],
      "name": "getIdentityUpdateVerifierLookupTableAddress",
      "outputs": [
        {
          "internalType": "address",
          "name": "",
          "type": "address"
        }
      ],
      "stateMutability": "view",
      "type": "function"
    },
    {
      "inputs": [],
      "name": "getRegisterIdentitiesVerifierLookupTableAddress",
      "outputs": [
        {
          "internalType": "address",
          "name": "",
          "type": "address"
        }
      ],
      "stateMutability": "view",
      "type": "function"
    },
    {
      "inputs": [],
      "name": "getRootHistoryExpiry",
      "outputs": [
        {
          "internalType": "uint256",
          "name": "",
          "type": "uint256"
        }
      ],
      "stateMutability": "view",
      "type": "function"
    },
    {
      "inputs": [],
      "name": "getSemaphoreVerifierAddress",
      "outputs": [
        {
          "internalType": "address",
          "name": "",
          "type": "address"
        }
      ],
      "stateMutability": "view",
      "type": "function"
    },
    {
      "inputs": [],
      "name": "getTreeDepth",
      "outputs": [
        {
          "internalType": "uint8",
          "name": "",
          "type": "uint8"
        }
      ],
      "stateMutability": "view",
      "type": "function"
    },
    {
      "inputs": [],
      "name": "identityOperator",
      "outputs": [
        {
          "internalType": "address",
          "name": "",
          "type": "address"
        }
      ],
      "stateMutability": "view",
      "type": "function"
    },
    {
      "inputs": [
        {
          "internalType": "uint8",
          "name": "_treeDepth",
          "type": "uint8"
        },
        {
          "internalType": "uint256",
          "name": "initialRoot",
          "type": "uint256"
        },
        {
          "internalType": "contract VerifierLookupTable",
          "name": "_batchInsertionVerifiers",
          "type": "address"
        },
        {
          "internalType": "contract VerifierLookupTable",
          "name": "_batchUpdateVerifiers",
          "type": "address"
        },
        {
          "internalType": "contract ISemaphoreVerifier",
          "name": "_semaphoreVerifier",
          "type": "address"
        },
        {
          "internalType": "bool",
          "name": "_enableStateBridge",
          "type": "bool"
        },
        {
          "internalType": "contract IBridge",
          "name": "__stateBridge",
          "type": "address"
        }
      ],
      "name": "initialize",
      "outputs": [],
      "stateMutability": "nonpayable",
      "type": "function"
    },
    {
      "inputs": [
        {
          "internalType": "uint256",
          "name": "input",
          "type": "uint256"
        }
      ],
      "name": "isInputInReducedForm",
      "outputs": [
        {
          "internalType": "bool",
          "name": "",
          "type": "bool"
        }
      ],
      "stateMutability": "view",
      "type": "function"
    },
    {
      "inputs": [],
      "name": "latestRoot",
      "outputs": [
        {
          "internalType": "uint256",
          "name": "",
          "type": "uint256"
        }
      ],
      "stateMutability": "view",
      "type": "function"
    },
    {
      "inputs": [],
      "name": "owner",
      "outputs": [
        {
          "internalType": "address",
          "name": "",
          "type": "address"
        }
      ],
      "stateMutability": "view",
      "type": "function"
    },
    {
      "inputs": [],
      "name": "pendingOwner",
      "outputs": [
        {
          "internalType": "address",
          "name": "",
          "type": "address"
        }
      ],
      "stateMutability": "view",
      "type": "function"
    },
    {
      "inputs": [],
      "name": "proxiableUUID",
      "outputs": [
        {
          "internalType": "bytes32",
          "name": "",
          "type": "bytes32"
        }
      ],
      "stateMutability": "view",
      "type": "function"
    },
    {
      "inputs": [
        {
          "internalType": "uint256",
          "name": "root",
          "type": "uint256"
        }
      ],
      "name": "queryRoot",
      "outputs": [
        {
          "components": [
            {
              "internalType": "uint256",
              "name": "root",
              "type": "uint256"
            },
            {
              "internalType": "uint128",
              "name": "supersededTimestamp",
              "type": "uint128"
            },
            {
              "internalType": "bool",
              "name": "isValid",
              "type": "bool"
            }
          ],
          "internalType": "struct WorldIDIdentityManagerImplV1.RootInfo",
          "name": "",
          "type": "tuple"
        }
      ],
      "stateMutability": "view",
      "type": "function"
    },
    {
      "inputs": [
        {
          "internalType": "uint256[8]",
          "name": "insertionProof",
          "type": "uint256[8]"
        },
        {
          "internalType": "uint256",
          "name": "preRoot",
          "type": "uint256"
        },
        {
          "internalType": "uint32",
          "name": "startIndex",
          "type": "uint32"
        },
        {
          "internalType": "uint256[]",
          "name": "identityCommitments",
          "type": "uint256[]"
        },
        {
          "internalType": "uint256",
          "name": "postRoot",
          "type": "uint256"
        }
      ],
      "name": "registerIdentities",
      "outputs": [],
      "stateMutability": "nonpayable",
      "type": "function"
    },
    {
      "inputs": [],
      "name": "renounceOwnership",
      "outputs": [],
      "stateMutability": "view",
      "type": "function"
    },
    {
      "inputs": [
        {
          "internalType": "uint256",
          "name": "root",
          "type": "uint256"
        }
      ],
      "name": "requireValidRoot",
      "outputs": [],
      "stateMutability": "view",
      "type": "function"
    },
    {
      "inputs": [
        {
          "internalType": "address",
          "name": "newIdentityOperator",
          "type": "address"
        }
      ],
      "name": "setIdentityOperator",
      "outputs": [
        {
          "internalType": "address",
          "name": "",
          "type": "address"
        }
      ],
      "stateMutability": "nonpayable",
      "type": "function"
    },
    {
      "inputs": [
        {
          "internalType": "contract VerifierLookupTable",
          "name": "newTable",
          "type": "address"
        }
      ],
      "name": "setIdentityUpdateVerifierLookupTable",
      "outputs": [],
      "stateMutability": "nonpayable",
      "type": "function"
    },
    {
      "inputs": [
        {
          "internalType": "contract VerifierLookupTable",
          "name": "newTable",
          "type": "address"
        }
      ],
      "name": "setRegisterIdentitiesVerifierLookupTable",
      "outputs": [],
      "stateMutability": "nonpayable",
      "type": "function"
    },
    {
      "inputs": [
        {
          "internalType": "uint256",
          "name": "newExpiryTime",
          "type": "uint256"
        }
      ],
      "name": "setRootHistoryExpiry",
      "outputs": [],
      "stateMutability": "nonpayable",
      "type": "function"
    },
    {
      "inputs": [
        {
          "internalType": "contract ISemaphoreVerifier",
          "name": "newVerifier",
          "type": "address"
        }
      ],
      "name": "setSemaphoreVerifier",
      "outputs": [],
      "stateMutability": "nonpayable",
      "type": "function"
    },
    {
      "inputs": [
        {
          "internalType": "contract IBridge",
          "name": "newStateBridge",
          "type": "address"
        }
      ],
      "name": "setStateBridge",
      "outputs": [],
      "stateMutability": "nonpayable",
      "type": "function"
    },
    {
      "inputs": [],
      "name": "stateBridge",
      "outputs": [
        {
          "internalType": "contract IBridge",
          "name": "stateBridgeContract",
          "type": "address"
        }
      ],
      "stateMutability": "view",
      "type": "function"
    },
    {
      "inputs": [
        {
          "internalType": "address",
          "name": "newOwner",
          "type": "address"
        }
      ],
      "name": "transferOwnership",
      "outputs": [],
      "stateMutability": "nonpayable",
      "type": "function"
    },
    {
      "inputs": [
        {
          "internalType": "uint256[8]",
          "name": "updateProof",
          "type": "uint256[8]"
        },
        {
          "internalType": "uint256",
          "name": "preRoot",
          "type": "uint256"
        },
        {
          "internalType": "uint32[]",
          "name": "leafIndices",
          "type": "uint32[]"
        },
        {
          "internalType": "uint256[]",
          "name": "oldIdentities",
          "type": "uint256[]"
        },
        {
          "internalType": "uint256[]",
          "name": "newIdentities",
          "type": "uint256[]"
        },
        {
          "internalType": "uint256",
          "name": "postRoot",
          "type": "uint256"
        }
      ],
      "name": "updateIdentities",
      "outputs": [],
      "stateMutability": "nonpayable",
      "type": "function"
    },
    {
      "inputs": [
        {
          "internalType": "address",
          "name": "newImplementation",
          "type": "address"
        }
      ],
      "name": "upgradeTo",
      "outputs": [],
      "stateMutability": "nonpayable",
      "type": "function"
    },
    {
      "inputs": [
        {
          "internalType": "address",
          "name": "newImplementation",
          "type": "address"
        },
        {
          "internalType": "bytes",
          "name": "data",
          "type": "bytes"
        }
      ],
      "name": "upgradeToAndCall",
      "outputs": [],
      "stateMutability": "payable",
      "type": "function"
    },
    {
      "inputs": [
        {
          "internalType": "uint256",
          "name": "root",
          "type": "uint256"
        },
        {
          "internalType": "uint256",
          "name": "signalHash",
          "type": "uint256"
        },
        {
          "internalType": "uint256",
          "name": "nullifierHash",
          "type": "uint256"
        },
        {
          "internalType": "uint256",
          "name": "externalNullifierHash",
          "type": "uint256"
        },
        {
          "internalType": "uint256[8]",
          "name": "proof",
          "type": "uint256[8]"
        }
      ],
      "name": "verifyProof",
      "outputs": [],
      "stateMutability": "view",
      "type": "function"
    }
  ],
  "bytecode": {
    "object": "0x60a0604052306080523480156200001557600080fd5b506200002062000026565b620000e8565b600054610100900460ff1615620000935760405162461bcd60e51b815260206004820152602760248201527f496e697469616c697a61626c653a20636f6e747261637420697320696e697469604482015266616c697a696e6760c81b606482015260840160405180910390fd5b60005460ff9081161015620000e6576000805460ff191660ff9081179091556040519081527f7f26b83ff96e1f2b6a682f133852f6798a09c465da95921460cefb38474024989060200160405180910390a15b565b608051613ff16200029a60003960008181610648015281816106910152818161076f015281816107af01528181610bcf01528181610c0f01528181610cc601528181610d0601528181610db301528181610df301528181610ef301528181610f3301528181610fd8015281816110180152818161116d015281816111ad0152818161123901528181611279015281816112f401528181611334015281816113cb0152818161147b015281816114bb015281816115b5015281816115f501528181611744015281816117840152818161185001528181611890015281816119530152818161199301528181611a2a01528181611a6a01528181611b0001528181611b4001528181611bd401528181611c1401528181611d0801528181611d4801528181611e2801528181611e680152818161208a015281816120ca01528181612240015281816122800152818161230d0152818161234d015281816123e301528181612423015281816124b7015281816124f70152818161286c015281816128ac01528181612ae401528181612b2401528181612c3601528181612c7601528181612f1c0152612f5c0152613ff16000f3fe6080604052600436106101f95760003560e01c80638c76a9091161010d578063c70aa727116100a0578063f2038f951161006f578063f2038f95146105a9578063f2358e1d146105be578063f2ebe631146105de578063f2fde38b146105fe578063fa8ca8101461061e57600080fd5b8063c70aa72714610541578063d7b0fef114610561578063e30c397814610576578063f134b6ca1461059457600080fd5b806391f262d3116100dc57806391f262d3146104d7578063a26b810e146104ec578063a7bba58214610501578063b843b4e51461052157600080fd5b80638c76a9091461045d5780638da5cb5b1461047d5780638e5cdd501461049b5780638fc22e9f146104c257600080fd5b80634f1ef2861161019057806361ea6a8d1161015f57806361ea6a8d146103de5780636b056600146103f3578063715018a61461041357806379ba50971461042857806386ec599a1461043d57600080fd5b80634f1ef286146103455780634ffbdde51461035857806352d1902d14610385578063561f204b1461039a57600080fd5b8063354ca120116101cc578063354ca120146102955780633659cfe6146102b55780633f7c178d146102d557806343f974cb1461032257600080fd5b80630e3a12f3146101fe5780632217b211146102205780632f059fca146102405780633492315214610260575b600080fd5b34801561020a57600080fd5b5061021e6102193660046135df565b61063e565b005b34801561022c57600080fd5b5061021e61023b36600461366e565b610765565b34801561024c57600080fd5b5061021e61025b3660046135df565b610bc5565b34801561026c57600080fd5b5061028061027b3660046136eb565b610cba565b60405190151581526020015b60405180910390f35b3480156102a157600080fd5b5061021e6102b0366004613704565b610da9565b3480156102c157600080fd5b5061021e6102d03660046135df565b610ee9565b3480156102e157600080fd5b506102f56102f03660046136eb565b610fb1565b60408051825181526020808401516001600160801b0316908201529181015115159082015260600161028c565b34801561032e57600080fd5b50610337611161565b60405190815260200161028c565b61021e610353366004613792565b61122f565b34801561036457600080fd5b5061036d6112e8565b6040516001600160a01b03909116815260200161028c565b34801561039157600080fd5b506103376113be565b3480156103a657600080fd5b5060408051606080820183526000808352602080840182905292840181905283519182018452808252918101829052918201526102f5565b3480156103ea57600080fd5b5061021e611471565b3480156103ff57600080fd5b5061021e61040e3660046135df565b6115ab565b34801561041f57600080fd5b5061021e6116a0565b34801561043457600080fd5b5061021e6116c1565b34801561044957600080fd5b5061033761045836600461383e565b611738565b34801561046957600080fd5b506103376104783660046138eb565b611844565b34801561048957600080fd5b506033546001600160a01b031661036d565b3480156104a757600080fd5b506104b0611947565b60405160ff909116815260200161028c565b3480156104ce57600080fd5b5061036d611a1e565b3480156104e357600080fd5b5061036d611af4565b3480156104f857600080fd5b5061021e611bca565b34801561050d57600080fd5b5061036d61051c3660046135df565b611cfc565b34801561052d57600080fd5b5061021e61053c366004613953565b611e1e565b34801561054d57600080fd5b5061021e61055c3660046136eb565b612080565b34801561056d57600080fd5b50610337612234565b34801561058257600080fd5b506065546001600160a01b031661036d565b3480156105a057600080fd5b5061036d612301565b3480156105b557600080fd5b5061036d6123d7565b3480156105ca57600080fd5b5061021e6105d93660046136eb565b6124ad565b3480156105ea57600080fd5b5061021e6105f9366004613a24565b6125ea565b34801561060a57600080fd5b5061021e6106193660046135df565b6127f1565b34801561062a57600080fd5b5061021e6106393660046135df565b612862565b6001600160a01b037f000000000000000000000000000000000000000000000000000000000000000016300361068f5760405162461bcd60e51b815260040161068690613ab7565b60405180910390fd5b7f00000000000000000000000000000000000000000000000000000000000000006001600160a01b03166106c1612998565b6001600160a01b0316146106e75760405162461bcd60e51b815260040161068690613b03565b60fb5460ff1661070a57604051630103019560e11b815260040160405180910390fd5b6107126129b4565b61013380546001600160a01b038381166001600160a01b03198316811790935516908160035b6040517fd194b8423e9cb3c7cbebbbc3fe7f79dc2cbe0b40e03270d975abff491504c7b190600090a45050565b6001600160a01b037f00000000000000000000000000000000000000000000000000000000000000001630036107ad5760405162461bcd60e51b815260040161068690613ab7565b7f00000000000000000000000000000000000000000000000000000000000000006001600160a01b03166107df612998565b6001600160a01b0316146108055760405162461bcd60e51b815260040161068690613b03565b60fb5460ff1661082857604051630103019560e11b815260040160405180910390fd5b61012d546001600160a01b031633146108565760405163472511eb60e11b8152336004820152602401610686565b61085f85610cba565b6108815760008560405163af1e188960e01b8152600401610686929190613b4f565b61012e5485146108b35761012e5460405163542fced960e11b8152610686918791600401918252602082015260400190565b6108bc81610cba565b6108de5760028160405163af1e188960e01b8152600401610686929190613b4f565b6108e88383612a0e565b60006108f78587848787611844565b9050600061090482612aa8565b61013154604051638a283fc360e01b8152600481018790529192506000916001600160a01b0390911690638a283fc390602401602060405180830381865afa158015610954573d6000803e3d6000fd5b505050506040513d601f19601f820116820180604052508101906109789190613b7b565b9050806001600160a01b03166343753b4d60405180604001604052808c6000600881106109a7576109a7613b98565b602002013581526020018c6001600881106109c4576109c4613b98565b60200201359052604080516080810182528d820135918101918252908190606082018f60036020020135815250815260200160405180604001604052808f600460088110610a1457610a14613b98565b602002013581526020018f600560088110610a3157610a31613b98565b60200201359052905260408051808201909152808e6006602002013581526020018e600760088110610a6557610a65613b98565b60200201358152506040518060200160405280888152506040518563ffffffff1660e01b8152600401610a9b9493929190613bd1565b6020604051808303816000875af1925050508015610ad6575060408051601f3d908101601f19168201909252610ad391810190613c78565b60015b610b3657610ae2613c95565b806308c379a003610b1b5750610af6613cb0565b80610b015750610b1d565b8060405162461bcd60e51b81526004016106869190613d5e565b505b604051631e716a8b60e01b815260040160405180910390fd5b80610b5457604051631e716a8b60e01b815260040160405180910390fd5b61012e859055600089815261012f6020526040902080546001600160801b031916426001600160801b0316179055610b8a612ada565b8460006040518b907f25f6d5cc356ee0b49cf708c13c68197947f5740a878a298765e4b18e4afdaf0490600090a4505b505050505050505050565b6001600160a01b037f0000000000000000000000000000000000000000000000000000000000000000163003610c0d5760405162461bcd60e51b815260040161068690613ab7565b7f00000000000000000000000000000000000000000000000000000000000000006001600160a01b0316610c3f612998565b6001600160a01b031614610c655760405162461bcd60e51b815260040161068690613b03565b60fb5460ff16610c8857604051630103019560e11b815260040160405180910390fd5b610c906129b4565b61013180546001600160a01b038381166001600160a01b0319831681179093551690816001610738565b60006001600160a01b037f0000000000000000000000000000000000000000000000000000000000000000163003610d045760405162461bcd60e51b815260040161068690613ab7565b7f00000000000000000000000000000000000000000000000000000000000000006001600160a01b0316610d36612998565b6001600160a01b031614610d5c5760405162461bcd60e51b815260040161068690613b03565b60fb5460ff16610d7f57604051630103019560e11b815260040160405180910390fd5b507f30644e72e131a029b85045b68181585d2833e84879b9709143e1f593f000000181105b919050565b6001600160a01b037f0000000000000000000000000000000000000000000000000000000000000000163003610df15760405162461bcd60e51b815260040161068690613ab7565b7f00000000000000000000000000000000000000000000000000000000000000006001600160a01b0316610e23612998565b6001600160a01b031614610e495760405162461bcd60e51b815260040161068690613b03565b60fb5460ff16610e6c57604051630103019560e11b815260040160405180910390fd5b610e75856124ad565b6101335461013454604051634d65479560e11b81526001600160a01b0390921691639aca8f2a91610ebd91899188918a9189918991600160a81b900460ff1690600401613d91565b60006040518083038186803b158015610ed557600080fd5b505afa158015610bba573d6000803e3d6000fd5b6001600160a01b037f0000000000000000000000000000000000000000000000000000000000000000163003610f315760405162461bcd60e51b815260040161068690613ab7565b7f00000000000000000000000000000000000000000000000000000000000000006001600160a01b0316610f63612998565b6001600160a01b031614610f895760405162461bcd60e51b815260040161068690613b03565b610f9281612c2c565b60408051600080825260208201909252610fae91839190612cd4565b50565b60408051606081018252600080825260208201819052918101919091526001600160a01b037f00000000000000000000000000000000000000000000000000000000000000001630036110165760405162461bcd60e51b815260040161068690613ab7565b7f00000000000000000000000000000000000000000000000000000000000000006001600160a01b0316611048612998565b6001600160a01b03161461106e5760405162461bcd60e51b815260040161068690613b03565b60fb5460ff1661109157604051630103019560e11b815260040160405180910390fd5b61012e5482036110c05750506040805160608101825261012e5481526000602082015260019181019190915290565b600082815261012f60205260408120546001600160801b03169081900361111b5760408051606080820183526000808352602080840182905292840181905283519182018452808252918101829052918201525b9392505050565b610130546000906111356001600160801b03841642613de3565b604080516060810182528781526001600160801b03909516602086015291101590830152509050919050565b60006001600160a01b037f00000000000000000000000000000000000000000000000000000000000000001630036111ab5760405162461bcd60e51b815260040161068690613ab7565b7f00000000000000000000000000000000000000000000000000000000000000006001600160a01b03166111dd612998565b6001600160a01b0316146112035760405162461bcd60e51b815260040161068690613b03565b60fb5460ff1661122657604051630103019560e11b815260040160405180910390fd5b50610130545b90565b6001600160a01b037f00000000000000000000000000000000000000000000000000000000000000001630036112775760405162461bcd60e51b815260040161068690613ab7565b7f00000000000000000000000000000000000000000000000000000000000000006001600160a01b03166112a9612998565b6001600160a01b0316146112cf5760405162461bcd60e51b815260040161068690613b03565b6112d882612c2c565b6112e482826001612cd4565b5050565b60006001600160a01b037f00000000000000000000000000000000000000000000000000000000000000001630036113325760405162461bcd60e51b815260040161068690613ab7565b7f00000000000000000000000000000000000000000000000000000000000000006001600160a01b0316611364612998565b6001600160a01b03161461138a5760405162461bcd60e51b815260040161068690613b03565b60fb5460ff166113ad57604051630103019560e11b815260040160405180910390fd5b50610132546001600160a01b031690565b6000306001600160a01b037f0000000000000000000000000000000000000000000000000000000000000000161461145e5760405162461bcd60e51b815260206004820152603860248201527f555550535570677261646561626c653a206d757374206e6f742062652063616c60448201527f6c6564207468726f7567682064656c656761746563616c6c00000000000000006064820152608401610686565b50600080516020613f7583398151915290565b6001600160a01b037f00000000000000000000000000000000000000000000000000000000000000001630036114b95760405162461bcd60e51b815260040161068690613ab7565b7f00000000000000000000000000000000000000000000000000000000000000006001600160a01b03166114eb612998565b6001600160a01b0316146115115760405162461bcd60e51b815260040161068690613b03565b60fb5460ff1661153457604051630103019560e11b815260040160405180910390fd5b61153c6129b4565b61013454600160a01b900460ff1661159057610134805460ff60a01b1916600160a01b1790556040516001907fc2481c150ab648d8248c5a0b452a12da07a6a26d8e11b0ed6cee10375e14d5e490600090a2565b60405163963a8d4f60e01b815260040160405180910390fd5b565b6001600160a01b037f00000000000000000000000000000000000000000000000000000000000000001630036115f35760405162461bcd60e51b815260040161068690613ab7565b7f00000000000000000000000000000000000000000000000000000000000000006001600160a01b0316611625612998565b6001600160a01b03161461164b5760405162461bcd60e51b815260040161068690613b03565b60fb5460ff1661166e57604051630103019560e11b815260040160405180910390fd5b6116766129b4565b61013280546001600160a01b038381166001600160a01b0319831681179093551690816002610738565b6116a86129b4565b6040516377aeb0ad60e01b815260040160405180910390fd5b60655433906001600160a01b0316811461172f5760405162461bcd60e51b815260206004820152602960248201527f4f776e61626c6532537465703a2063616c6c6572206973206e6f7420746865206044820152683732bb9037bbb732b960b91b6064820152608401610686565b610fae81612e44565b60006001600160a01b037f00000000000000000000000000000000000000000000000000000000000000001630036117825760405162461bcd60e51b815260040161068690613ab7565b7f00000000000000000000000000000000000000000000000000000000000000006001600160a01b03166117b4612998565b6001600160a01b0316146117da5760405162461bcd60e51b815260040161068690613b03565b60fb5460ff166117fd57604051630103019560e11b815260040160405180910390fd5b6000898989898989898960405160200161181e989796959493929190613e1f565b60408051601f1981840301815291905280516020909101209a9950505050505050505050565b60006001600160a01b037f000000000000000000000000000000000000000000000000000000000000000016300361188e5760405162461bcd60e51b815260040161068690613ab7565b7f00000000000000000000000000000000000000000000000000000000000000006001600160a01b03166118c0612998565b6001600160a01b0316146118e65760405162461bcd60e51b815260040161068690613b03565b60fb5460ff1661190957604051630103019560e11b815260040160405180910390fd5b60008686868686604051602001611924959493929190613e83565b60408051601f198184030181529190528051602090910120979650505050505050565b60006001600160a01b037f00000000000000000000000000000000000000000000000000000000000000001630036119915760405162461bcd60e51b815260040161068690613ab7565b7f00000000000000000000000000000000000000000000000000000000000000006001600160a01b03166119c3612998565b6001600160a01b0316146119e95760405162461bcd60e51b815260040161068690613b03565b60fb5460ff16611a0c57604051630103019560e11b815260040160405180910390fd5b5061013454600160a81b900460ff1690565b60006001600160a01b037f0000000000000000000000000000000000000000000000000000000000000000163003611a685760405162461bcd60e51b815260040161068690613ab7565b7f00000000000000000000000000000000000000000000000000000000000000006001600160a01b0316611a9a612998565b6001600160a01b031614611ac05760405162461bcd60e51b815260040161068690613b03565b60fb5460ff16611ae357604051630103019560e11b815260040160405180910390fd5b50610131546001600160a01b031690565b60006001600160a01b037f0000000000000000000000000000000000000000000000000000000000000000163003611b3e5760405162461bcd60e51b815260040161068690613ab7565b7f00000000000000000000000000000000000000000000000000000000000000006001600160a01b0316611b70612998565b6001600160a01b031614611b965760405162461bcd60e51b815260040161068690613b03565b60fb5460ff16611bb957604051630103019560e11b815260040160405180910390fd5b50610134546001600160a01b031690565b6001600160a01b037f0000000000000000000000000000000000000000000000000000000000000000163003611c125760405162461bcd60e51b815260040161068690613ab7565b7f00000000000000000000000000000000000000000000000000000000000000006001600160a01b0316611c44612998565b6001600160a01b031614611c6a5760405162461bcd60e51b815260040161068690613b03565b60fb5460ff16611c8d57604051630103019560e11b815260040160405180910390fd5b611c956129b4565b61013454600160a01b900460ff1615611ce357610134805460ff60a01b191690556040516000907fc2481c150ab648d8248c5a0b452a12da07a6a26d8e11b0ed6cee10375e14d5e4908290a2565b6040516331ae429160e21b815260040160405180910390fd5b60006001600160a01b037f0000000000000000000000000000000000000000000000000000000000000000163003611d465760405162461bcd60e51b815260040161068690613ab7565b7f00000000000000000000000000000000000000000000000000000000000000006001600160a01b0316611d78612998565b6001600160a01b031614611d9e5760405162461bcd60e51b815260040161068690613b03565b60fb5460ff16611dc157604051630103019560e11b815260040160405180910390fd5b611dc96129b4565b61012d80546001600160a01b038481166001600160a01b0319831681179093556040519116919082907f5a674c516c196404869e5f502b5634ce442416bb016dde54b5de4c812cc019e690600090a392915050565b6001600160a01b037f0000000000000000000000000000000000000000000000000000000000000000163003611e665760405162461bcd60e51b815260040161068690613ab7565b7f00000000000000000000000000000000000000000000000000000000000000006001600160a01b0316611e98612998565b6001600160a01b031614611ebe5760405162461bcd60e51b815260040161068690613b03565b60fb5460ff16611ee157604051630103019560e11b815260040160405180910390fd5b61012d546001600160a01b03163314611f0f5760405163472511eb60e11b8152336004820152602401610686565b611f1888610cba565b611f3a5760008860405163af1e188960e01b8152600401610686929190613b4f565b61012e548814611f6c5761012e5460405163542fced960e11b8152610686918a91600401918252602082015260400190565b611f7581610cba565b611f975760028160405163af1e188960e01b8152600401610686929190613b4f565b8584141580611fa65750858214155b15611fc45760405163a0b1d72d60e01b815260040160405180910390fd5b611fd085858585612e5d565b6000611fe289838a8a8a8a8a8a611738565b90506000611fef82612aa8565b61013254604051638a283fc360e01b8152600481018b90529192506000916001600160a01b0390911690638a283fc390602401602060405180830381865afa15801561203f573d6000803e3d6000fd5b505050506040513d601f19601f820116820180604052508101906120639190613b7b565b9050612072818d848e88612f12565b505050505050505050505050565b6001600160a01b037f00000000000000000000000000000000000000000000000000000000000000001630036120c85760405162461bcd60e51b815260040161068690613ab7565b7f00000000000000000000000000000000000000000000000000000000000000006001600160a01b03166120fa612998565b6001600160a01b0316146121205760405162461bcd60e51b815260040161068690613b03565b60fb5460ff1661214357604051630103019560e11b815260040160405180910390fd5b61214b6129b4565b8060000361219b5760405162461bcd60e51b815260206004820152601b60248201527f4578706972792074696d652063616e6e6f74206265207a65726f2e00000000006044820152606401610686565b6101308054908290556101345460405163c70aa72760e01b8152600481018490526001600160a01b039091169063c70aa72790602401600060405180830381600087803b1580156121eb57600080fd5b505af11580156121ff573d6000803e3d6000fd5b50506040518492508391507ff62a6f06fde00a303cd5939e6b53762854412c96a196cda26720cedd28af9e7090600090a35050565b60006001600160a01b037f000000000000000000000000000000000000000000000000000000000000000016300361227e5760405162461bcd60e51b815260040161068690613ab7565b7f00000000000000000000000000000000000000000000000000000000000000006001600160a01b03166122b0612998565b6001600160a01b0316146122d65760405162461bcd60e51b815260040161068690613b03565b60fb5460ff166122f957604051630103019560e11b815260040160405180910390fd5b5061012e5490565b60006001600160a01b037f000000000000000000000000000000000000000000000000000000000000000016300361234b5760405162461bcd60e51b815260040161068690613ab7565b7f00000000000000000000000000000000000000000000000000000000000000006001600160a01b031661237d612998565b6001600160a01b0316146123a35760405162461bcd60e51b815260040161068690613b03565b60fb5460ff166123c657604051630103019560e11b815260040160405180910390fd5b5061012d546001600160a01b031690565b60006001600160a01b037f00000000000000000000000000000000000000000000000000000000000000001630036124215760405162461bcd60e51b815260040161068690613ab7565b7f00000000000000000000000000000000000000000000000000000000000000006001600160a01b0316612453612998565b6001600160a01b0316146124795760405162461bcd60e51b815260040161068690613b03565b60fb5460ff1661249c57604051630103019560e11b815260040160405180910390fd5b50610133546001600160a01b031690565b6001600160a01b037f00000000000000000000000000000000000000000000000000000000000000001630036124f55760405162461bcd60e51b815260040161068690613ab7565b7f00000000000000000000000000000000000000000000000000000000000000006001600160a01b0316612527612998565b6001600160a01b03161461254d5760405162461bcd60e51b815260040161068690613b03565b60fb5460ff1661257057604051630103019560e11b815260040160405180910390fd5b61012e548114610fae57600081815261012f60205260408120546001600160801b0316908190036125b45760405163ddae3b7160e01b815260040160405180910390fd5b610130546125cb6001600160801b03831642613de3565b11156112e457604051631d739acf60e11b815260040160405180910390fd5b600054600190610100900460ff1615801561260c575060005460ff8083169116105b61266f5760405162461bcd60e51b815260206004820152602e60248201527f496e697469616c697a61626c653a20636f6e747261637420697320616c72656160448201526d191e481a5b9a5d1a585b1a5e995960921b6064820152608401610686565b6000805461ffff191660ff83161761010017905561268b613211565b61269488613240565b6126b657604051630220cee360e61b815260ff89166004820152602401610686565b6101348054610e106101305561012e89905561013180546001600160a01b03199081166001600160a01b038b811691909117909255610132805482168a8416179055610133805482168984161790558582166001600160b01b0319909316600160a81b60ff8e16026001600160a81b0319161792909217600160a01b871515021790925560335461012d8054919093169116179055612753613267565b6040805160ff8a16815260208101899052841515818301526001600160a01b038416606082015290517fd93f9e4e87e2eb65cf1cc7027724822fb326319f779480e9e74e58dc0993d2609181900360800190a16000805461ff001916905560405160ff821681527f7f26b83ff96e1f2b6a682f133852f6798a09c465da95921460cefb38474024989060200160405180910390a15050505050505050565b6127f96129b4565b606580546001600160a01b0383166001600160a01b0319909116811790915561282a6033546001600160a01b031690565b6001600160a01b03167f38d16b8cac22d99fc7c124b9cd0de2d3fa1faef420bfe791d8c362d765e2270060405160405180910390a350565b6001600160a01b037f00000000000000000000000000000000000000000000000000000000000000001630036128aa5760405162461bcd60e51b815260040161068690613ab7565b7f00000000000000000000000000000000000000000000000000000000000000006001600160a01b03166128dc612998565b6001600160a01b0316146129025760405162461bcd60e51b815260040161068690613b03565b60fb5460ff1661292557604051630103019560e11b815260040160405180910390fd5b61292d6129b4565b6001600160a01b0381166129545760405163ed4cf55760e01b815260040160405180910390fd5b61013454600160a01b900460ff1661296e5761296e611471565b61013480546001600160a01b038381166001600160a01b0319831681179093551690816000610738565b600080516020613f75833981519152546001600160a01b031690565b6033546001600160a01b031633146115a95760405162461bcd60e51b815260206004820181905260248201527f4f776e61626c653a2063616c6c6572206973206e6f7420746865206f776e65726044820152606401610686565b6000805b82811015612aa2576000848483818110612a2e57612a2e613b98565b905060200201359050828015612a4357508015155b15612a645760405163018f31f560e51b815260048101839052602401610686565b612a6d81610cba565b612a8f5760018160405163af1e188960e01b8152600401610686929190613b4f565b159150612a9b81613eb9565b9050612a12565b50505050565b6000612ad47f30644e72e131a029b85045b68181585d2833e84879b9709143e1f593f000000183613ed2565b92915050565b6001600160a01b037f0000000000000000000000000000000000000000000000000000000000000000163003612b225760405162461bcd60e51b815260040161068690613ab7565b7f00000000000000000000000000000000000000000000000000000000000000006001600160a01b0316612b54612998565b6001600160a01b031614612b7a5760405162461bcd60e51b815260040161068690613b03565b60fb5460ff16612b9d57604051630103019560e11b815260040160405180910390fd5b61013454600160a01b900460ff168015612bc25750610134546001600160a01b031615155b156115a9576101345461012e5460405163393170cf60e01b81526001600160a01b039092169163393170cf91612bfe9160040190815260200190565b600060405180830381600087803b158015612c1857600080fd5b505af1158015612aa2573d6000803e3d6000fd5b6001600160a01b037f0000000000000000000000000000000000000000000000000000000000000000163003612c745760405162461bcd60e51b815260040161068690613ab7565b7f00000000000000000000000000000000000000000000000000000000000000006001600160a01b0316612ca6612998565b6001600160a01b031614612ccc5760405162461bcd60e51b815260040161068690613b03565b610fae6129b4565b7f4910fdfa16fed3260ed0e7147f7cc6da11a60208b5b9406d12a635614ffd91435460ff1615612d0c57612d078361329d565b505050565b826001600160a01b03166352d1902d6040518163ffffffff1660e01b8152600401602060405180830381865afa925050508015612d66575060408051601f3d908101601f19168201909252612d6391810190613ef4565b60015b612dc95760405162461bcd60e51b815260206004820152602e60248201527f45524331393637557067726164653a206e657720696d706c656d656e7461746960448201526d6f6e206973206e6f74205555505360901b6064820152608401610686565b600080516020613f758339815191528114612e385760405162461bcd60e51b815260206004820152602960248201527f45524331393637557067726164653a20756e737570706f727465642070726f786044820152681a58589b195555525160ba1b6064820152608401610686565b50612d07838383613339565b606580546001600160a01b0319169055610fae8161335e565b60005b83811015612f0b576000858583818110612e7c57612e7c613b98565b9050602002013590506000848484818110612e9957612e99613b98565b905060200201359050612eab82610cba565b612ecd5760018260405163af1e188960e01b8152600401610686929190613b4f565b612ed681610cba565b612ef85760018160405163af1e188960e01b8152600401610686929190613b4f565b505080612f0490613eb9565b9050612e60565b5050505050565b6001600160a01b037f0000000000000000000000000000000000000000000000000000000000000000163003612f5a5760405162461bcd60e51b815260040161068690613ab7565b7f00000000000000000000000000000000000000000000000000000000000000006001600160a01b0316612f8c612998565b6001600160a01b031614612fb25760405162461bcd60e51b815260040161068690613b03565b60fb5460ff16612fd557604051630103019560e11b815260040160405180910390fd5b61012d546001600160a01b031633146130035760405163472511eb60e11b8152336004820152602401610686565b600060405180604001604052808660006008811061302357613023613b98565b602002013581526020018660016008811061304057613040613b98565b602002013590526040805160808101825287820135918101918252919250600091908190606082018960036020020135815250815260200160405180604001604052808960046008811061309657613096613b98565b60200201358152602001896005600881106130b3576130b3613b98565b602002013590529052604080518082019091529091506000908088600660200201358152602001886007600881106130ed576130ed613b98565b6020020135815250905060006040518060200160405280888152509050886001600160a01b03166343753b4d858585856040518563ffffffff1660e01b815260040161313c9493929190613bd1565b6020604051808303816000875af1925050508015613177575060408051601f3d908101601f1916820190925261317491810190613c78565b60015b61318357610ae2613c95565b806131a157604051631e716a8b60e01b815260040160405180910390fd5b61012e869055600087815261012f6020526040902080546001600160801b031916426001600160801b03161790556131d7612ada565b85600160405189907f25f6d5cc356ee0b49cf708c13c68197947f5740a878a298765e4b18e4afdaf0490600090a450505050505050505050565b600054610100900460ff166132385760405162461bcd60e51b815260040161068690613f0d565b6115a96133b0565b60006010602060ff8416821180159061325f57508060ff168460ff1611155b949350505050565b600054610100900460ff1661328e5760405162461bcd60e51b815260040161068690613f0d565b60fb805460ff19166001179055565b6001600160a01b0381163b61330a5760405162461bcd60e51b815260206004820152602d60248201527f455243313936373a206e657720696d706c656d656e746174696f6e206973206e60448201526c1bdd08184818dbdb9d1c9858dd609a1b6064820152608401610686565b600080516020613f7583398151915280546001600160a01b0319166001600160a01b0392909216919091179055565b613342836133e7565b60008251118061334f5750805b15612d0757612aa28383613427565b603380546001600160a01b038381166001600160a01b0319831681179093556040519116919082907f8be0079c531659141344cd1fd0a4f28419497f9722a3daafe3b4186f6b6457e090600090a35050565b600054610100900460ff166133d75760405162461bcd60e51b815260040161068690613f0d565b6133df61351b565b6115a961354a565b6133f08161329d565b6040516001600160a01b038216907fbc7cd75a20ee27fd9adebab32041f755214dbc6bffa90cc0225b39da2e5c2d3b90600090a250565b60606001600160a01b0383163b61348f5760405162461bcd60e51b815260206004820152602660248201527f416464726573733a2064656c65676174652063616c6c20746f206e6f6e2d636f6044820152651b9d1c9858dd60d21b6064820152608401610686565b600080846001600160a01b0316846040516134aa9190613f58565b600060405180830381855af49150503d80600081146134e5576040519150601f19603f3d011682016040523d82523d6000602084013e6134ea565b606091505b50915091506135128282604051806060016040528060278152602001613f9560279139613571565b95945050505050565b600054610100900460ff166135425760405162461bcd60e51b815260040161068690613f0d565b6115a961358a565b600054610100900460ff166115a95760405162461bcd60e51b815260040161068690613f0d565b60608315613580575081611114565b61111483836135ba565b600054610100900460ff166135b15760405162461bcd60e51b815260040161068690613f0d565b6115a933612e44565b815115610b015781518083602001fd5b6001600160a01b0381168114610fae57600080fd5b6000602082840312156135f157600080fd5b8135611114816135ca565b806101008101831015612ad457600080fd5b803563ffffffff81168114610da457600080fd5b60008083601f84011261363457600080fd5b50813567ffffffffffffffff81111561364c57600080fd5b6020830191508360208260051b850101111561366757600080fd5b9250929050565b600080600080600080610180878903121561368857600080fd5b61369288886135fc565b955061010087013594506136a9610120880161360e565b935061014087013567ffffffffffffffff8111156136c657600080fd5b6136d289828a01613622565b979a969950949794969561016090950135949350505050565b6000602082840312156136fd57600080fd5b5035919050565b6000806000806000610180868803121561371d57600080fd5b8535945060208601359350604086013592506060860135915061374387608088016135fc565b90509295509295909350565b634e487b7160e01b600052604160045260246000fd5b601f8201601f1916810167ffffffffffffffff8111828210171561378b5761378b61374f565b6040525050565b600080604083850312156137a557600080fd5b82356137b0816135ca565b915060208381013567ffffffffffffffff808211156137ce57600080fd5b818601915086601f8301126137e257600080fd5b8135818111156137f4576137f461374f565b604051915061380c601f8201601f1916850183613765565b808252878482850101111561382057600080fd5b80848401858401376000848284010152508093505050509250929050565b60008060008060008060008060a0898b03121561385a57600080fd5b8835975060208901359650604089013567ffffffffffffffff8082111561388057600080fd5b61388c8c838d01613622565b909850965060608b01359150808211156138a557600080fd5b6138b18c838d01613622565b909650945060808b01359150808211156138ca57600080fd5b506138d78b828c01613622565b999c989b5096995094979396929594505050565b60008060008060006080868803121561390357600080fd5b61390c8661360e565b94506020860135935060408601359250606086013567ffffffffffffffff81111561393657600080fd5b61394288828901613622565b969995985093965092949392505050565b60008060008060008060008060006101a08a8c03121561397257600080fd5b61397c8b8b6135fc565b98506101008a013597506101208a013567ffffffffffffffff808211156139a257600080fd5b6139ae8d838e01613622565b90995097506101408c01359150808211156139c857600080fd5b6139d48d838e01613622565b90975095506101608c01359150808211156139ee57600080fd5b506139fb8c828d01613622565b9a9d999c50979a969995989497966101800135949350505050565b8015158114610fae57600080fd5b600080600080600080600060e0888a031215613a3f57600080fd5b873560ff81168114613a5057600080fd5b9650602088013595506040880135613a67816135ca565b94506060880135613a77816135ca565b93506080880135613a87816135ca565b925060a0880135613a9781613a16565b915060c0880135613aa7816135ca565b8091505092959891949750929550565b6020808252602c908201527f46756e6374696f6e206d7573742062652063616c6c6564207468726f7567682060408201526b19195b1959d85d1958d85b1b60a21b606082015260800190565b6020808252602c908201527f46756e6374696f6e206d7573742062652063616c6c6564207468726f7567682060408201526b6163746976652070726f787960a01b606082015260800190565b6040810160038410613b7157634e487b7160e01b600052602160045260246000fd5b9281526020015290565b600060208284031215613b8d57600080fd5b8151611114816135ca565b634e487b7160e01b600052603260045260246000fd5b8060005b6002811015612aa2578151845260209384019390910190600101613bb2565b6101208101613be08287613bae565b60408083018660005b6002808210613bf85750613c33565b82518460005b83811015613c1c578251825260209283019290910190600101613bfe565b505050928401925060209190910190600101613be9565b50505050613c4460c0830185613bae565b61010082018360005b6001811015613c6c578151835260209283019290910190600101613c4d565b50505095945050505050565b600060208284031215613c8a57600080fd5b815161111481613a16565b600060033d111561122c5760046000803e5060005160e01c90565b600060443d1015613cbe5790565b6040516003193d81016004833e81513d67ffffffffffffffff8160248401118184111715613cee57505050505090565b8285019150815181811115613d065750505050505090565b843d8701016020828501011115613d205750505050505090565b613d2f60208286010187613765565b509095945050505050565b60005b83811015613d55578181015183820152602001613d3d565b50506000910152565b6020815260008251806020840152613d7d816040850160208701613d3a565b601f01601f19169190910160400192915050565b60006101a08201905087825286602083015285604083015284606083015261010084608084013760ff8316610180830152979650505050505050565b634e487b7160e01b600052601160045260246000fd5b81810381811115612ad457612ad4613dcd565b60006001600160fb1b03831115613e0c57600080fd5b8260051b80838637939093019392505050565b888152600060208981840152604083018960005b8a811015613e5c5763ffffffff613e498361360e565b1683529183019190830190600101613e33565b5050613e73613e6c82898b613df6565b8688613df6565b9c9b505050505050505050505050565b63ffffffff60e01b8660e01b1681528460048201528360248201526000613eae604483018486613df6565b979650505050505050565b600060018201613ecb57613ecb613dcd565b5060010190565b600082613eef57634e487b7160e01b600052601260045260246000fd5b500690565b600060208284031215613f0657600080fd5b5051919050565b6020808252602b908201527f496e697469616c697a61626c653a20636f6e7472616374206973206e6f74206960408201526a6e697469616c697a696e6760a81b606082015260800190565b60008251613f6a818460208701613d3a565b919091019291505056fe360894a13ba1a3210667c828492db98dca3e2076cc3735a920a3ca505d382bbc416464726573733a206c6f772d6c6576656c2064656c65676174652063616c6c206661696c6564a2646970667358221220942368ca6eae8289eed254989f9b09cd49b4ba057c456fecffe219534991f71764736f6c63430008130033",
    "linkReferences": {}
  },
  "methodIdentifiers": {
    "NO_SUCH_ROOT()": "561f204b",
    "acceptOwnership()": "79ba5097",
    "calculateIdentityRegistrationInputHash(uint32,uint256,uint256,uint256[])": "8c76a909",
    "calculateIdentityUpdateInputHash(uint256,uint256,uint32[],uint256[],uint256[])": "86ec599a",
    "disableStateBridge()": "a26b810e",
    "enableStateBridge()": "61ea6a8d",
    "getIdentityUpdateVerifierLookupTableAddress()": "4ffbdde5",
    "getRegisterIdentitiesVerifierLookupTableAddress()": "8fc22e9f",
    "getRootHistoryExpiry()": "43f974cb",
    "getSemaphoreVerifierAddress()": "f2038f95",
    "getTreeDepth()": "8e5cdd50",
    "identityOperator()": "f134b6ca",
    "initialize(uint8,uint256,address,address,address,bool,address)": "f2ebe631",
    "isInputInReducedForm(uint256)": "34923152",
    "latestRoot()": "d7b0fef1",
    "owner()": "8da5cb5b",
    "pendingOwner()": "e30c3978",
    "proxiableUUID()": "52d1902d",
    "queryRoot(uint256)": "3f7c178d",
    "registerIdentities(uint256[8],uint256,uint32,uint256[],uint256)": "2217b211",
    "renounceOwnership()": "715018a6",
    "requireValidRoot(uint256)": "f2358e1d",
    "setIdentityOperator(address)": "a7bba582",
    "setIdentityUpdateVerifierLookupTable(address)": "6b056600",
    "setRegisterIdentitiesVerifierLookupTable(address)": "2f059fca",
    "setRootHistoryExpiry(uint256)": "c70aa727",
    "setSemaphoreVerifier(address)": "0e3a12f3",
    "setStateBridge(address)": "fa8ca810",
    "stateBridge()": "91f262d3",
    "transferOwnership(address)": "f2fde38b",
    "updateIdentities(uint256[8],uint256,uint32[],uint256[],uint256[],uint256)": "b843b4e5",
    "upgradeTo(address)": "3659cfe6",
    "upgradeToAndCall(address,bytes)": "4f1ef286",
    "verifyProof(uint256,uint256,uint256,uint256,uint256[8])": "354ca120"
  },
  "id": 42
}